{
  "contractName": "MigrationToken",
  "abi": [
    {
      "inputs": [],
      "stateMutability": "nonpayable",
      "type": "constructor"
    },
    {
      "anonymous": false,
      "inputs": [
        {
          "indexed": true,
          "internalType": "address",
          "name": "owner",
          "type": "address"
        },
        {
          "indexed": true,
          "internalType": "address",
          "name": "spender",
          "type": "address"
        },
        {
          "indexed": false,
          "internalType": "uint256",
          "name": "value",
          "type": "uint256"
        }
      ],
      "name": "Approval",
      "type": "event"
    },
    {
      "anonymous": false,
      "inputs": [
        {
          "indexed": true,
          "internalType": "address",
          "name": "previousOwner",
          "type": "address"
        },
        {
          "indexed": true,
          "internalType": "address",
          "name": "newOwner",
          "type": "address"
        }
      ],
      "name": "OwnershipTransferred",
      "type": "event"
    },
    {
      "anonymous": false,
      "inputs": [
        {
          "indexed": true,
          "internalType": "address",
          "name": "from",
          "type": "address"
        },
        {
          "indexed": true,
          "internalType": "address",
          "name": "to",
          "type": "address"
        },
        {
          "indexed": false,
          "internalType": "uint256",
          "name": "value",
          "type": "uint256"
        }
      ],
      "name": "Transfer",
      "type": "event"
    },
    {
      "inputs": [
        {
          "internalType": "address",
          "name": "owner",
          "type": "address"
        },
        {
          "internalType": "address",
          "name": "spender",
          "type": "address"
        }
      ],
      "name": "allowance",
      "outputs": [
        {
          "internalType": "uint256",
          "name": "",
          "type": "uint256"
        }
      ],
      "stateMutability": "view",
      "type": "function",
      "constant": true
    },
    {
      "inputs": [
        {
          "internalType": "address",
          "name": "spender",
          "type": "address"
        },
        {
          "internalType": "uint256",
          "name": "amount",
          "type": "uint256"
        }
      ],
      "name": "approve",
      "outputs": [
        {
          "internalType": "bool",
          "name": "",
          "type": "bool"
        }
      ],
      "stateMutability": "nonpayable",
      "type": "function"
    },
    {
      "inputs": [
        {
          "internalType": "address",
          "name": "account",
          "type": "address"
        }
      ],
      "name": "balanceOf",
      "outputs": [
        {
          "internalType": "uint256",
          "name": "",
          "type": "uint256"
        }
      ],
      "stateMutability": "view",
      "type": "function",
      "constant": true
    },
    {
      "inputs": [
        {
          "internalType": "uint256",
          "name": "amount",
          "type": "uint256"
        }
      ],
      "name": "burn",
      "outputs": [],
      "stateMutability": "nonpayable",
      "type": "function"
    },
    {
      "inputs": [
        {
          "internalType": "address",
          "name": "account",
          "type": "address"
        },
        {
          "internalType": "uint256",
          "name": "amount",
          "type": "uint256"
        }
      ],
      "name": "burnFrom",
      "outputs": [],
      "stateMutability": "nonpayable",
      "type": "function"
    },
    {
      "inputs": [],
      "name": "decimals",
      "outputs": [
        {
          "internalType": "uint8",
          "name": "",
          "type": "uint8"
        }
      ],
      "stateMutability": "view",
      "type": "function",
      "constant": true
    },
    {
      "inputs": [
        {
          "internalType": "address",
          "name": "spender",
          "type": "address"
        },
        {
          "internalType": "uint256",
          "name": "subtractedValue",
          "type": "uint256"
        }
      ],
      "name": "decreaseAllowance",
      "outputs": [
        {
          "internalType": "bool",
          "name": "",
          "type": "bool"
        }
      ],
      "stateMutability": "nonpayable",
      "type": "function"
    },
    {
      "inputs": [
        {
          "internalType": "address",
          "name": "spender",
          "type": "address"
        },
        {
          "internalType": "uint256",
          "name": "addedValue",
          "type": "uint256"
        }
      ],
      "name": "increaseAllowance",
      "outputs": [
        {
          "internalType": "bool",
          "name": "",
          "type": "bool"
        }
      ],
      "stateMutability": "nonpayable",
      "type": "function"
    },
    {
      "inputs": [],
      "name": "name",
      "outputs": [
        {
          "internalType": "string",
          "name": "",
          "type": "string"
        }
      ],
      "stateMutability": "view",
      "type": "function",
      "constant": true
    },
    {
      "inputs": [],
      "name": "owner",
      "outputs": [
        {
          "internalType": "address",
          "name": "",
          "type": "address"
        }
      ],
      "stateMutability": "view",
      "type": "function",
      "constant": true
    },
    {
      "inputs": [],
      "name": "renounceOwnership",
      "outputs": [],
      "stateMutability": "nonpayable",
      "type": "function"
    },
    {
      "inputs": [],
      "name": "symbol",
      "outputs": [
        {
          "internalType": "string",
          "name": "",
          "type": "string"
        }
      ],
      "stateMutability": "view",
      "type": "function",
      "constant": true
    },
    {
      "inputs": [],
      "name": "totalSupply",
      "outputs": [
        {
          "internalType": "uint256",
          "name": "",
          "type": "uint256"
        }
      ],
      "stateMutability": "view",
      "type": "function",
      "constant": true
    },
    {
      "inputs": [
        {
          "internalType": "address",
          "name": "to",
          "type": "address"
        },
        {
          "internalType": "uint256",
          "name": "amount",
          "type": "uint256"
        }
      ],
      "name": "transfer",
      "outputs": [
        {
          "internalType": "bool",
          "name": "",
          "type": "bool"
        }
      ],
      "stateMutability": "nonpayable",
      "type": "function"
    },
    {
      "inputs": [
        {
          "internalType": "address",
          "name": "from",
          "type": "address"
        },
        {
          "internalType": "address",
          "name": "to",
          "type": "address"
        },
        {
          "internalType": "uint256",
          "name": "amount",
          "type": "uint256"
        }
      ],
      "name": "transferFrom",
      "outputs": [
        {
          "internalType": "bool",
          "name": "",
          "type": "bool"
        }
      ],
      "stateMutability": "nonpayable",
      "type": "function"
    },
    {
      "inputs": [
        {
          "internalType": "address",
          "name": "newOwner",
          "type": "address"
        }
      ],
      "name": "transferOwnership",
      "outputs": [],
      "stateMutability": "nonpayable",
      "type": "function"
    },
    {
      "inputs": [
        {
          "internalType": "address",
          "name": "government",
          "type": "address"
        },
        {
          "internalType": "string",
          "name": "_name",
          "type": "string"
        }
      ],
      "name": "register",
      "outputs": [],
      "stateMutability": "nonpayable",
      "type": "function"
    },
    {
      "inputs": [
        {
          "internalType": "address",
          "name": "to",
          "type": "address"
        },
        {
          "internalType": "uint256",
          "name": "amount",
          "type": "uint256"
        }
      ],
      "name": "request",
      "outputs": [],
      "stateMutability": "payable",
      "type": "function",
      "payable": true
    },
    {
      "inputs": [
        {
          "internalType": "address",
          "name": "to",
          "type": "address"
        }
      ],
      "name": "retrieve",
      "outputs": [],
      "stateMutability": "nonpayable",
      "type": "function"
    },
    {
      "inputs": [
        {
          "internalType": "address",
          "name": "from",
          "type": "address"
        }
      ],
      "name": "accept",
      "outputs": [],
      "stateMutability": "nonpayable",
      "type": "function"
    },
    {
      "inputs": [
        {
          "internalType": "string",
          "name": "_name",
          "type": "string"
        },
        {
          "internalType": "uint256",
          "name": "_amount",
          "type": "uint256"
        }
      ],
      "name": "EventRegister",
      "outputs": [],
      "stateMutability": "nonpayable",
      "type": "function"
    },
    {
      "inputs": [
        {
          "internalType": "uint256",
          "name": "_eventnum",
          "type": "uint256"
        },
        {
          "internalType": "address[]",
          "name": "participants",
          "type": "address[]"
        }
      ],
      "name": "provide_token",
      "outputs": [],
      "stateMutability": "nonpayable",
      "type": "function"
    },
    {
      "inputs": [
        {
          "internalType": "bool",
          "name": "flag",
          "type": "bool"
        },
        {
          "internalType": "string",
          "name": "goodsname",
          "type": "string"
        },
        {
          "internalType": "uint256",
          "name": "rate",
          "type": "uint256"
        }
      ],
      "name": "goodsope",
      "outputs": [],
      "stateMutability": "nonpayable",
      "type": "function"
    },
    {
      "inputs": [
        {
          "internalType": "address",
          "name": "gov",
          "type": "address"
        },
        {
          "internalType": "string",
          "name": "goods",
          "type": "string"
        }
      ],
      "name": "exchange",
      "outputs": [],
      "stateMutability": "nonpayable",
      "type": "function"
    },
    {
      "inputs": [],
      "name": "check",
      "outputs": [
        {
          "internalType": "uint256",
          "name": "",
          "type": "uint256"
        }
      ],
      "stateMutability": "view",
      "type": "function",
      "constant": true
    },
    {
      "inputs": [
        {
          "internalType": "address",
          "name": "acc",
          "type": "address"
        }
      ],
      "name": "checkAccount",
      "outputs": [
        {
          "internalType": "bool",
          "name": "",
          "type": "bool"
        },
        {
          "internalType": "address",
          "name": "",
          "type": "address"
        }
      ],
      "stateMutability": "view",
      "type": "function",
      "constant": true
    }
  ],
  "bytecode": "0x608060405260016006553480156200001657600080fd5b506040518060400160405280600e81526020017f4d6967726174696f6e546f6b656e0000000000000000000000000000000000008152506040518060400160405280600381526020017f4d47540000000000000000000000000000000000000000000000000000000000815250816003908162000094919062000417565b508060049081620000a6919062000417565b505050620000c9620000bd620000cf60201b60201c565b620000d760201b60201c565b620004fe565b600033905090565b6000600560009054906101000a900473ffffffffffffffffffffffffffffffffffffffff16905081600560006101000a81548173ffffffffffffffffffffffffffffffffffffffff021916908373ffffffffffffffffffffffffffffffffffffffff1602179055508173ffffffffffffffffffffffffffffffffffffffff168173ffffffffffffffffffffffffffffffffffffffff167f8be0079c531659141344cd1fd0a4f28419497f9722a3daafe3b4186f6b6457e060405160405180910390a35050565b600081519050919050565b7f4e487b7100000000000000000000000000000000000000000000000000000000600052604160045260246000fd5b7f4e487b7100000000000000000000000000000000000000000000000000000000600052602260045260246000fd5b600060028204905060018216806200021f57607f821691505b602082108103620002355762000234620001d7565b5b50919050565b60008190508160005260206000209050919050565b60006020601f8301049050919050565b600082821b905092915050565b6000600883026200029f7fffffffffffffffffffffffffffffffffffffffffffffffffffffffffffffffff8262000260565b620002ab868362000260565b95508019841693508086168417925050509392505050565b6000819050919050565b6000819050919050565b6000620002f8620002f2620002ec84620002c3565b620002cd565b620002c3565b9050919050565b6000819050919050565b6200031483620002d7565b6200032c6200032382620002ff565b8484546200026d565b825550505050565b600090565b6200034362000334565b6200035081848462000309565b505050565b5b8181101562000378576200036c60008262000339565b60018101905062000356565b5050565b601f821115620003c75762000391816200023b565b6200039c8462000250565b81016020851015620003ac578190505b620003c4620003bb8562000250565b83018262000355565b50505b505050565b600082821c905092915050565b6000620003ec60001984600802620003cc565b1980831691505092915050565b6000620004078383620003d9565b9150826002028217905092915050565b62000422826200019d565b67ffffffffffffffff8111156200043e576200043d620001a8565b5b6200044a825462000206565b620004578282856200037c565b600060209050601f8311600181146200048f57600084156200047a578287015190505b620004868582620003f9565b865550620004f6565b601f1984166200049f866200023b565b60005b82811015620004c957848901518255600182019150602085019450602081019050620004a2565b86831015620004e95784890151620004e5601f891682620003d9565b8355505b6001600288020188555050505b505050505050565b613aee806200050e6000396000f3fe6080604052600436106101815760003560e01c806378596314116100d15780639f0059201161008a578063c8c01a5511610064578063c8c01a5514610593578063d81dc7f6146105af578063dd62ed3e146105d8578063f2fde38b1461061557610181565b80639f005920146104f0578063a457c2d714610519578063a9059cbb1461055657610181565b806378596314146103f457806379cc67901461041d5780637bf5922e146104465780638da5cb5b1461046f578063919840ad1461049a57806395d89b41146104c557610181565b8063313ce5671161013e57806342966c681161011857806342966c681461033957806369921c261461036257806370a08231146103a0578063715018a6146103dd57610181565b8063313ce567146102a857806332434a2e146102d357806339509351146102fc57610181565b806306fdde0314610186578063095ea7b3146101b15780630a79309b146101ee57806312af0c8c1461021757806318160ddd1461024057806323b872dd1461026b575b600080fd5b34801561019257600080fd5b5061019b61063e565b6040516101a891906124e7565b60405180910390f35b3480156101bd57600080fd5b506101d860048036038101906101d391906125b1565b6106d0565b6040516101e5919061260c565b60405180910390f35b3480156101fa57600080fd5b5061021560048036038101906102109190612627565b6106f3565b005b34801561022357600080fd5b5061023e60048036038101906102399190612789565b610a26565b005b34801561024c57600080fd5b50610255610ad9565b60405161026291906127f4565b60405180910390f35b34801561027757600080fd5b50610292600480360381019061028d919061280f565b610ae3565b60405161029f919061260c565b60405180910390f35b3480156102b457600080fd5b506102bd610b12565b6040516102ca919061287e565b60405180910390f35b3480156102df57600080fd5b506102fa60048036038101906102f59190612789565b610b1b565b005b34801561030857600080fd5b50610323600480360381019061031e91906125b1565b610cf1565b604051610330919061260c565b60405180910390f35b34801561034557600080fd5b50610360600480360381019061035b9190612899565b610d28565b005b34801561036e57600080fd5b5061038960048036038101906103849190612627565b610d3c565b6040516103979291906128d5565b60405180910390f35b3480156103ac57600080fd5b506103c760048036038101906103c29190612627565b610d9f565b6040516103d491906127f4565b60405180910390f35b3480156103e957600080fd5b506103f2610de7565b005b34801561040057600080fd5b5061041b600480360381019061041691906129c6565b610dfb565b005b34801561042957600080fd5b50610444600480360381019061043f91906125b1565b61100d565b005b34801561045257600080fd5b5061046d60048036038101906104689190612a22565b61102d565b005b34801561047b57600080fd5b506104846111d7565b6040516104919190612a7e565b60405180910390f35b3480156104a657600080fd5b506104af611201565b6040516104bc91906127f4565b60405180910390f35b3480156104d157600080fd5b506104da611209565b6040516104e791906124e7565b60405180910390f35b3480156104fc57600080fd5b5061051760048036038101906105129190612627565b61129b565b005b34801561052557600080fd5b50610540600480360381019061053b91906125b1565b6115ab565b60405161054d919061260c565b60405180910390f35b34801561056257600080fd5b5061057d600480360381019061057891906125b1565b611622565b60405161058a919061260c565b60405180910390f35b6105ad60048036038101906105a891906125b1565b611645565b005b3480156105bb57600080fd5b506105d660048036038101906105d19190612ac5565b61188a565b005b3480156105e457600080fd5b506105ff60048036038101906105fa9190612b34565b6119e4565b60405161060c91906127f4565b60405180910390f35b34801561062157600080fd5b5061063c60048036038101906106379190612627565b611a6b565b005b60606003805461064d90612ba3565b80601f016020809104026020016040519081016040528092919081815260200182805461067990612ba3565b80156106c65780601f1061069b576101008083540402835291602001916106c6565b820191906000526020600020905b8154815290600101906020018083116106a957829003601f168201915b5050505050905090565b6000806106db611aee565b90506106e8818585611af6565b600191505092915050565b6000600760003373ffffffffffffffffffffffffffffffffffffffff1673ffffffffffffffffffffffffffffffffffffffff1681526020019081526020016000205403610775576040517f08c379a000000000000000000000000000000000000000000000000000000000815260040161076c90612c20565b60405180910390fd5b62093a80600960003373ffffffffffffffffffffffffffffffffffffffff1673ffffffffffffffffffffffffffffffffffffffff16815260200190815260200160002060008373ffffffffffffffffffffffffffffffffffffffff1673ffffffffffffffffffffffffffffffffffffffff168152602001908152602001600020541015610837576040517f08c379a000000000000000000000000000000000000000000000000000000000815260040161082e90612c8c565b60405180910390fd5b6000600a60003373ffffffffffffffffffffffffffffffffffffffff1673ffffffffffffffffffffffffffffffffffffffff16815260200190815260200160002060008373ffffffffffffffffffffffffffffffffffffffff1673ffffffffffffffffffffffffffffffffffffffff1681526020019081526020016000205490503373ffffffffffffffffffffffffffffffffffffffff166108fc670de0b6b3a76400006064846108e89190612d0a565b6108f29190612d3b565b9081150290604051600060405180830381858888f1935050505015801561091d573d6000803e3d6000fd5b506000600a60003373ffffffffffffffffffffffffffffffffffffffff1673ffffffffffffffffffffffffffffffffffffffff16815260200190815260200160002060008473ffffffffffffffffffffffffffffffffffffffff1673ffffffffffffffffffffffffffffffffffffffff168152602001908152602001600020819055506000600960003373ffffffffffffffffffffffffffffffffffffffff1673ffffffffffffffffffffffffffffffffffffffff16815260200190815260200160002060008473ffffffffffffffffffffffffffffffffffffffff1673ffffffffffffffffffffffffffffffffffffffff168152602001908152602001600020819055505050565b6000600c60008473ffffffffffffffffffffffffffffffffffffffff1673ffffffffffffffffffffffffffffffffffffffff16815260200190815260200160002082604051610a759190612db9565b908152602001604051809103902054905060008111610ac9576040517f08c379a0000000000000000000000000000000000000000000000000000000008152600401610ac090612e1c565b60405180910390fd5b610ad38382611622565b50505050565b6000600254905090565b600080610aee611aee565b9050610afb858285611cbf565b610b06858585611d4b565b60019150509392505050565b60006012905090565b610b23611fc1565b6000600760008473ffffffffffffffffffffffffffffffffffffffff1673ffffffffffffffffffffffffffffffffffffffff1681526020019081526020016000205414610ba5576040517f08c379a0000000000000000000000000000000000000000000000000000000008152600401610b9c90612e88565b60405180910390fd5b600654600760008473ffffffffffffffffffffffffffffffffffffffff1673ffffffffffffffffffffffffffffffffffffffff16815260200190815260200160002081905550600060405180608001604052808473ffffffffffffffffffffffffffffffffffffffff168152602001838152602001600654815260200160008152509050600d81908060018154018082558091505060019003906000526020600020906004020160009091909190915060008201518160000160006101000a81548173ffffffffffffffffffffffffffffffffffffffff021916908373ffffffffffffffffffffffffffffffffffffffff1602179055506020820151816001019081610cb19190613054565b506040820151816002015560608201518160030155505060066000815480929190610cdb90613126565b9190505550610cec836103e861203f565b505050565b600080610cfc611aee565b9050610d1d818585610d0e85896119e4565b610d18919061316e565b611af6565b600191505092915050565b610d39610d33611aee565b82612055565b50565b6000806000600760008573ffffffffffffffffffffffffffffffffffffffff1673ffffffffffffffffffffffffffffffffffffffff1681526020019081526020016000205403610d925760018391509150610d9a565b600083915091505b915091565b60008060008373ffffffffffffffffffffffffffffffffffffffff1673ffffffffffffffffffffffffffffffffffffffff168152602001908152602001600020549050919050565b610def611fc1565b610df96000612222565b565b6000600760003373ffffffffffffffffffffffffffffffffffffffff1673ffffffffffffffffffffffffffffffffffffffff1681526020019081526020016000205403610e7d576040517f08c379a0000000000000000000000000000000000000000000000000000000008152600401610e7490612c20565b60405180910390fd5b6000600b60003373ffffffffffffffffffffffffffffffffffffffff1673ffffffffffffffffffffffffffffffffffffffff1681526020019081526020016000206000848152602001908152602001600020604051806040016040529081600082018054610eea90612ba3565b80601f0160208091040260200160405190810160405280929190818152602001828054610f1690612ba3565b8015610f635780601f10610f3857610100808354040283529160200191610f63565b820191906000526020600020905b815481529060010190602001808311610f4657829003601f168201915b505050505081526020016001820154815250509050600081602001511015610fc0576040517f08c379a0000000000000000000000000000000000000000000000000000000008152600401610fb7906131ee565b60405180910390fd5b60005b825181101561100757610ff4838281518110610fe257610fe161320e565b5b602002602001015183602001516122e8565b8080610fff90613126565b915050610fc3565b50505050565b61101f82611019611aee565b83611cbf565b6110298282612055565b5050565b6000600760003373ffffffffffffffffffffffffffffffffffffffff1673ffffffffffffffffffffffffffffffffffffffff16815260200190815260200160002054036110af576040517f08c379a00000000000000000000000000000000000000000000000000000000081526004016110a690612c20565b60405180910390fd5b600060405180604001604052808481526020018381525090506000600d6001600760003373ffffffffffffffffffffffffffffffffffffffff1673ffffffffffffffffffffffffffffffffffffffff16815260200190815260200160002054611118919061323d565b815481106111295761112861320e565b5b9060005260206000209060040201905060008160030154905082600b60003373ffffffffffffffffffffffffffffffffffffffff1673ffffffffffffffffffffffffffffffffffffffff168152602001908152602001600020600083815260200190815260200160002060008201518160000190816111a89190613054565b50602082015181600101559050508160030160008154809291906111cb90613126565b91905055505050505050565b6000600560009054906101000a900473ffffffffffffffffffffffffffffffffffffffff16905090565b600047905090565b60606004805461121890612ba3565b80601f016020809104026020016040519081016040528092919081815260200182805461124490612ba3565b80156112915780601f1061126657610100808354040283529160200191611291565b820191906000526020600020905b81548152906001019060200180831161127457829003601f168201915b5050505050905090565b6000600760003373ffffffffffffffffffffffffffffffffffffffff1673ffffffffffffffffffffffffffffffffffffffff168152602001908152602001600020540361131d576040517f08c379a000000000000000000000000000000000000000000000000000000000815260040161131490612c20565b60405180910390fd5b6000600a60008373ffffffffffffffffffffffffffffffffffffffff1673ffffffffffffffffffffffffffffffffffffffff16815260200190815260200160002060003373ffffffffffffffffffffffffffffffffffffffff1673ffffffffffffffffffffffffffffffffffffffff1681526020019081526020016000205490506000670de0b6b3a76400006064836113b69190612d0a565b6113c09190612d3b565b905060008203611405576040517f08c379a00000000000000000000000000000000000000000000000000000000081526004016113fc906132bd565b60405180910390fd5b8161140f33610d9f565b1015611450576040517f08c379a000000000000000000000000000000000000000000000000000000000815260040161144790613329565b60405180910390fd5b61145a8383611622565b506000600a60008573ffffffffffffffffffffffffffffffffffffffff1673ffffffffffffffffffffffffffffffffffffffff16815260200190815260200160002060003373ffffffffffffffffffffffffffffffffffffffff1673ffffffffffffffffffffffffffffffffffffffff168152602001908152602001600020819055506000600960008573ffffffffffffffffffffffffffffffffffffffff1673ffffffffffffffffffffffffffffffffffffffff16815260200190815260200160002060003373ffffffffffffffffffffffffffffffffffffffff1673ffffffffffffffffffffffffffffffffffffffff168152602001908152602001600020819055503373ffffffffffffffffffffffffffffffffffffffff166108fc829081150290604051600060405180830381858888f193505050501580156115a5573d6000803e3d6000fd5b50505050565b6000806115b6611aee565b905060006115c482866119e4565b905083811015611609576040517f08c379a0000000000000000000000000000000000000000000000000000000008152600401611600906133bb565b60405180910390fd5b6116168286868403611af6565b60019250505092915050565b60008061162d611aee565b905061163a818585611d4b565b600191505092915050565b6000600760003373ffffffffffffffffffffffffffffffffffffffff1673ffffffffffffffffffffffffffffffffffffffff16815260200190815260200160002054036116c7576040517f08c379a00000000000000000000000000000000000000000000000000000000081526004016116be90612c20565b60405180910390fd5b60006064826116d691906133db565b14611716576040517f08c379a000000000000000000000000000000000000000000000000000000000815260040161170d90613458565b60405180910390fd5b60006064826117259190612d0a565b90506000429050670de0b6b3a7640000826117409190612d3b565b341015611782576040517f08c379a0000000000000000000000000000000000000000000000000000000008152600401611779906134c4565b60405180910390fd5b82600a60003373ffffffffffffffffffffffffffffffffffffffff1673ffffffffffffffffffffffffffffffffffffffff16815260200190815260200160002060008673ffffffffffffffffffffffffffffffffffffffff1673ffffffffffffffffffffffffffffffffffffffff1681526020019081526020016000208190555080600960003373ffffffffffffffffffffffffffffffffffffffff1673ffffffffffffffffffffffffffffffffffffffff16815260200190815260200160002060008673ffffffffffffffffffffffffffffffffffffffff1673ffffffffffffffffffffffffffffffffffffffff1681526020019081526020016000208190555050505050565b6000600760003373ffffffffffffffffffffffffffffffffffffffff1673ffffffffffffffffffffffffffffffffffffffff168152602001908152602001600020540361190c576040517f08c379a000000000000000000000000000000000000000000000000000000000815260040161190390612c20565b60405180910390fd5b600115158315150361197d5780600c60003373ffffffffffffffffffffffffffffffffffffffff1673ffffffffffffffffffffffffffffffffffffffff168152602001908152602001600020836040516119669190612db9565b9081526020016040518091039020819055506119df565b6000600c60003373ffffffffffffffffffffffffffffffffffffffff1673ffffffffffffffffffffffffffffffffffffffff168152602001908152602001600020836040516119cc9190612db9565b9081526020016040518091039020819055505b505050565b6000600160008473ffffffffffffffffffffffffffffffffffffffff1673ffffffffffffffffffffffffffffffffffffffff16815260200190815260200160002060008373ffffffffffffffffffffffffffffffffffffffff1673ffffffffffffffffffffffffffffffffffffffff16815260200190815260200160002054905092915050565b611a73611fc1565b600073ffffffffffffffffffffffffffffffffffffffff168173ffffffffffffffffffffffffffffffffffffffff1603611ae2576040517f08c379a0000000000000000000000000000000000000000000000000000000008152600401611ad990613556565b60405180910390fd5b611aeb81612222565b50565b600033905090565b600073ffffffffffffffffffffffffffffffffffffffff168373ffffffffffffffffffffffffffffffffffffffff1603611b65576040517f08c379a0000000000000000000000000000000000000000000000000000000008152600401611b5c906135e8565b60405180910390fd5b600073ffffffffffffffffffffffffffffffffffffffff168273ffffffffffffffffffffffffffffffffffffffff1603611bd4576040517f08c379a0000000000000000000000000000000000000000000000000000000008152600401611bcb9061367a565b60405180910390fd5b80600160008573ffffffffffffffffffffffffffffffffffffffff1673ffffffffffffffffffffffffffffffffffffffff16815260200190815260200160002060008473ffffffffffffffffffffffffffffffffffffffff1673ffffffffffffffffffffffffffffffffffffffff168152602001908152602001600020819055508173ffffffffffffffffffffffffffffffffffffffff168373ffffffffffffffffffffffffffffffffffffffff167f8c5be1e5ebec7d5bd14f71427d1e84f3dd0314c0f7b2291e5b200ac8c7c3b92583604051611cb291906127f4565b60405180910390a3505050565b6000611ccb84846119e4565b90507fffffffffffffffffffffffffffffffffffffffffffffffffffffffffffffffff8114611d455781811015611d37576040517f08c379a0000000000000000000000000000000000000000000000000000000008152600401611d2e906136e6565b60405180910390fd5b611d448484848403611af6565b5b50505050565b600073ffffffffffffffffffffffffffffffffffffffff168373ffffffffffffffffffffffffffffffffffffffff1603611dba576040517f08c379a0000000000000000000000000000000000000000000000000000000008152600401611db190613778565b60405180910390fd5b600073ffffffffffffffffffffffffffffffffffffffff168273ffffffffffffffffffffffffffffffffffffffff1603611e29576040517f08c379a0000000000000000000000000000000000000000000000000000000008152600401611e209061380a565b60405180910390fd5b611e348383836122f7565b60008060008573ffffffffffffffffffffffffffffffffffffffff1673ffffffffffffffffffffffffffffffffffffffff16815260200190815260200160002054905081811015611eba576040517f08c379a0000000000000000000000000000000000000000000000000000000008152600401611eb19061389c565b60405180910390fd5b8181036000808673ffffffffffffffffffffffffffffffffffffffff1673ffffffffffffffffffffffffffffffffffffffff16815260200190815260200160002081905550816000808573ffffffffffffffffffffffffffffffffffffffff1673ffffffffffffffffffffffffffffffffffffffff168152602001908152602001600020600082825401925050819055508273ffffffffffffffffffffffffffffffffffffffff168473ffffffffffffffffffffffffffffffffffffffff167fddf252ad1be2c89b69c2b068fc378daa952ba7f163c4a11628f55a4df523b3ef84604051611fa891906127f4565b60405180910390a3611fbb8484846122fc565b50505050565b611fc9611aee565b73ffffffffffffffffffffffffffffffffffffffff16611fe76111d7565b73ffffffffffffffffffffffffffffffffffffffff161461203d576040517f08c379a000000000000000000000000000000000000000000000000000000000815260040161203490613908565b60405180910390fd5b565b612047611fc1565b6120518282612301565b5050565b600073ffffffffffffffffffffffffffffffffffffffff168273ffffffffffffffffffffffffffffffffffffffff16036120c4576040517f08c379a00000000000000000000000000000000000000000000000000000000081526004016120bb9061399a565b60405180910390fd5b6120d0826000836122f7565b60008060008473ffffffffffffffffffffffffffffffffffffffff1673ffffffffffffffffffffffffffffffffffffffff16815260200190815260200160002054905081811015612156576040517f08c379a000000000000000000000000000000000000000000000000000000000815260040161214d90613a2c565b60405180910390fd5b8181036000808573ffffffffffffffffffffffffffffffffffffffff1673ffffffffffffffffffffffffffffffffffffffff1681526020019081526020016000208190555081600260008282540392505081905550600073ffffffffffffffffffffffffffffffffffffffff168373ffffffffffffffffffffffffffffffffffffffff167fddf252ad1be2c89b69c2b068fc378daa952ba7f163c4a11628f55a4df523b3ef8460405161220991906127f4565b60405180910390a361221d836000846122fc565b505050565b6000600560009054906101000a900473ffffffffffffffffffffffffffffffffffffffff16905081600560006101000a81548173ffffffffffffffffffffffffffffffffffffffff021916908373ffffffffffffffffffffffffffffffffffffffff1602179055508173ffffffffffffffffffffffffffffffffffffffff168173ffffffffffffffffffffffffffffffffffffffff167f8be0079c531659141344cd1fd0a4f28419497f9722a3daafe3b4186f6b6457e060405160405180910390a35050565b6122f28282611622565b505050565b505050565b505050565b600073ffffffffffffffffffffffffffffffffffffffff168273ffffffffffffffffffffffffffffffffffffffff1603612370576040517f08c379a000000000000000000000000000000000000000000000000000000000815260040161236790613a98565b60405180910390fd5b61237c600083836122f7565b806002600082825461238e919061316e565b92505081905550806000808473ffffffffffffffffffffffffffffffffffffffff1673ffffffffffffffffffffffffffffffffffffffff168152602001908152602001600020600082825401925050819055508173ffffffffffffffffffffffffffffffffffffffff16600073ffffffffffffffffffffffffffffffffffffffff167fddf252ad1be2c89b69c2b068fc378daa952ba7f163c4a11628f55a4df523b3ef8360405161243f91906127f4565b60405180910390a3612453600083836122fc565b5050565b600081519050919050565b600082825260208201905092915050565b60005b83811015612491578082015181840152602081019050612476565b60008484015250505050565b6000601f19601f8301169050919050565b60006124b982612457565b6124c38185612462565b93506124d3818560208601612473565b6124dc8161249d565b840191505092915050565b6000602082019050818103600083015261250181846124ae565b905092915050565b6000604051905090565b600080fd5b600080fd5b600073ffffffffffffffffffffffffffffffffffffffff82169050919050565b60006125488261251d565b9050919050565b6125588161253d565b811461256357600080fd5b50565b6000813590506125758161254f565b92915050565b6000819050919050565b61258e8161257b565b811461259957600080fd5b50565b6000813590506125ab81612585565b92915050565b600080604083850312156125c8576125c7612513565b5b60006125d685828601612566565b92505060206125e78582860161259c565b9150509250929050565b60008115159050919050565b612606816125f1565b82525050565b600060208201905061262160008301846125fd565b92915050565b60006020828403121561263d5761263c612513565b5b600061264b84828501612566565b91505092915050565b600080fd5b600080fd5b7f4e487b7100000000000000000000000000000000000000000000000000000000600052604160045260246000fd5b6126968261249d565b810181811067ffffffffffffffff821117156126b5576126b461265e565b5b80604052505050565b60006126c8612509565b90506126d4828261268d565b919050565b600067ffffffffffffffff8211156126f4576126f361265e565b5b6126fd8261249d565b9050602081019050919050565b82818337600083830152505050565b600061272c612727846126d9565b6126be565b90508281526020810184848401111561274857612747612659565b5b61275384828561270a565b509392505050565b600082601f8301126127705761276f612654565b5b8135612780848260208601612719565b91505092915050565b600080604083850312156127a05761279f612513565b5b60006127ae85828601612566565b925050602083013567ffffffffffffffff8111156127cf576127ce612518565b5b6127db8582860161275b565b9150509250929050565b6127ee8161257b565b82525050565b600060208201905061280960008301846127e5565b92915050565b60008060006060848603121561282857612827612513565b5b600061283686828701612566565b935050602061284786828701612566565b92505060406128588682870161259c565b9150509250925092565b600060ff82169050919050565b61287881612862565b82525050565b6000602082019050612893600083018461286f565b92915050565b6000602082840312156128af576128ae612513565b5b60006128bd8482850161259c565b91505092915050565b6128cf8161253d565b82525050565b60006040820190506128ea60008301856125fd565b6128f760208301846128c6565b9392505050565b600067ffffffffffffffff8211156129195761291861265e565b5b602082029050602081019050919050565b600080fd5b600061294261293d846128fe565b6126be565b905080838252602082019050602084028301858111156129655761296461292a565b5b835b8181101561298e578061297a8882612566565b845260208401935050602081019050612967565b5050509392505050565b600082601f8301126129ad576129ac612654565b5b81356129bd84826020860161292f565b91505092915050565b600080604083850312156129dd576129dc612513565b5b60006129eb8582860161259c565b925050602083013567ffffffffffffffff811115612a0c57612a0b612518565b5b612a1885828601612998565b9150509250929050565b60008060408385031215612a3957612a38612513565b5b600083013567ffffffffffffffff811115612a5757612a56612518565b5b612a638582860161275b565b9250506020612a748582860161259c565b9150509250929050565b6000602082019050612a9360008301846128c6565b92915050565b612aa2816125f1565b8114612aad57600080fd5b50565b600081359050612abf81612a99565b92915050565b600080600060608486031215612ade57612add612513565b5b6000612aec86828701612ab0565b935050602084013567ffffffffffffffff811115612b0d57612b0c612518565b5b612b198682870161275b565b9250506040612b2a8682870161259c565b9150509250925092565b60008060408385031215612b4b57612b4a612513565b5b6000612b5985828601612566565b9250506020612b6a85828601612566565b9150509250929050565b7f4e487b7100000000000000000000000000000000000000000000000000000000600052602260045260246000fd5b60006002820490506001821680612bbb57607f821691505b602082108103612bce57612bcd612b74565b5b50919050565b7f796f7520617265206e6f7420676f7665726e6d656e7400000000000000000000600082015250565b6000612c0a601683612462565b9150612c1582612bd4565b602082019050919050565b60006020820190508181036000830152612c3981612bfd565b9050919050565b7f74696d6520697320696c656167616c0000000000000000000000000000000000600082015250565b6000612c76600f83612462565b9150612c8182612c40565b602082019050919050565b60006020820190508181036000830152612ca581612c69565b9050919050565b7f4e487b7100000000000000000000000000000000000000000000000000000000600052601260045260246000fd5b7f4e487b7100000000000000000000000000000000000000000000000000000000600052601160045260246000fd5b6000612d158261257b565b9150612d208361257b565b925082612d3057612d2f612cac565b5b828204905092915050565b6000612d468261257b565b9150612d518361257b565b9250828202612d5f8161257b565b91508282048414831517612d7657612d75612cdb565b5b5092915050565b600081905092915050565b6000612d9382612457565b612d9d8185612d7d565b9350612dad818560208601612473565b80840191505092915050565b6000612dc58284612d88565b915081905092915050565b7f676f6f6473206973206e6f7420646566696e6400000000000000000000000000600082015250565b6000612e06601383612462565b9150612e1182612dd0565b602082019050919050565b60006020820190508181036000830152612e3581612df9565b9050919050565b7f616c726561647920726567697374657265736400000000000000000000000000600082015250565b6000612e72601383612462565b9150612e7d82612e3c565b602082019050919050565b60006020820190508181036000830152612ea181612e65565b9050919050565b60008190508160005260206000209050919050565b60006020601f8301049050919050565b600082821b905092915050565b600060088302612f0a7fffffffffffffffffffffffffffffffffffffffffffffffffffffffffffffffff82612ecd565b612f148683612ecd565b95508019841693508086168417925050509392505050565b6000819050919050565b6000612f51612f4c612f478461257b565b612f2c565b61257b565b9050919050565b6000819050919050565b612f6b83612f36565b612f7f612f7782612f58565b848454612eda565b825550505050565b600090565b612f94612f87565b612f9f818484612f62565b505050565b5b81811015612fc357612fb8600082612f8c565b600181019050612fa5565b5050565b601f82111561300857612fd981612ea8565b612fe284612ebd565b81016020851015612ff1578190505b613005612ffd85612ebd565b830182612fa4565b50505b505050565b600082821c905092915050565b600061302b6000198460080261300d565b1980831691505092915050565b6000613044838361301a565b9150826002028217905092915050565b61305d82612457565b67ffffffffffffffff8111156130765761307561265e565b5b6130808254612ba3565b61308b828285612fc7565b600060209050601f8311600181146130be57600084156130ac578287015190505b6130b68582613038565b86555061311e565b601f1984166130cc86612ea8565b60005b828110156130f4578489015182556001820191506020850194506020810190506130cf565b86831015613111578489015161310d601f89168261301a565b8355505b6001600288020188555050505b505050505050565b60006131318261257b565b91507fffffffffffffffffffffffffffffffffffffffffffffffffffffffffffffffff820361316357613162612cdb565b5b600182019050919050565b60006131798261257b565b91506131848361257b565b925082820190508082111561319c5761319b612cdb565b5b92915050565b7f6576656e74206973206e6f7420646566696e6564000000000000000000000000600082015250565b60006131d8601483612462565b91506131e3826131a2565b602082019050919050565b60006020820190508181036000830152613207816131cb565b9050919050565b7f4e487b7100000000000000000000000000000000000000000000000000000000600052603260045260246000fd5b60006132488261257b565b91506132538361257b565b925082820390508181111561326b5761326a612cdb565b5b92915050565b7f72657175657374206973206e6f7420666f756e64000000000000000000000000600082015250565b60006132a7601483612462565b91506132b282613271565b602082019050919050565b600060208201905081810360008301526132d68161329a565b9050919050565b7f535452414e474500000000000000000000000000000000000000000000000000600082015250565b6000613313600783612462565b915061331e826132dd565b602082019050919050565b6000602082019050818103600083015261334281613306565b9050919050565b7f45524332303a2064656372656173656420616c6c6f77616e63652062656c6f7760008201527f207a65726f000000000000000000000000000000000000000000000000000000602082015250565b60006133a5602583612462565b91506133b082613349565b604082019050919050565b600060208201905081810360008301526133d481613398565b9050919050565b60006133e68261257b565b91506133f18361257b565b92508261340157613400612cac565b5b828206905092915050565b7f496e636f727265637420756e6974000000000000000000000000000000000000600082015250565b6000613442600e83612462565b915061344d8261340c565b602082019050919050565b6000602082019050818103600083015261347181613435565b9050919050565b7f6e6f742073756666696369656e742076616c7565000000000000000000000000600082015250565b60006134ae601483612462565b91506134b982613478565b602082019050919050565b600060208201905081810360008301526134dd816134a1565b9050919050565b7f4f776e61626c653a206e6577206f776e657220697320746865207a65726f206160008201527f6464726573730000000000000000000000000000000000000000000000000000602082015250565b6000613540602683612462565b915061354b826134e4565b604082019050919050565b6000602082019050818103600083015261356f81613533565b9050919050565b7f45524332303a20617070726f76652066726f6d20746865207a65726f2061646460008201527f7265737300000000000000000000000000000000000000000000000000000000602082015250565b60006135d2602483612462565b91506135dd82613576565b604082019050919050565b60006020820190508181036000830152613601816135c5565b9050919050565b7f45524332303a20617070726f766520746f20746865207a65726f20616464726560008201527f7373000000000000000000000000000000000000000000000000000000000000602082015250565b6000613664602283612462565b915061366f82613608565b604082019050919050565b6000602082019050818103600083015261369381613657565b9050919050565b7f45524332303a20696e73756666696369656e7420616c6c6f77616e6365000000600082015250565b60006136d0601d83612462565b91506136db8261369a565b602082019050919050565b600060208201905081810360008301526136ff816136c3565b9050919050565b7f45524332303a207472616e736665722066726f6d20746865207a65726f20616460008201527f6472657373000000000000000000000000000000000000000000000000000000602082015250565b6000613762602583612462565b915061376d82613706565b604082019050919050565b6000602082019050818103600083015261379181613755565b9050919050565b7f45524332303a207472616e7366657220746f20746865207a65726f206164647260008201527f6573730000000000000000000000000000000000000000000000000000000000602082015250565b60006137f4602383612462565b91506137ff82613798565b604082019050919050565b60006020820190508181036000830152613823816137e7565b9050919050565b7f45524332303a207472616e7366657220616d6f756e742065786365656473206260008201527f616c616e63650000000000000000000000000000000000000000000000000000602082015250565b6000613886602683612462565b91506138918261382a565b604082019050919050565b600060208201905081810360008301526138b581613879565b9050919050565b7f4f776e61626c653a2063616c6c6572206973206e6f7420746865206f776e6572600082015250565b60006138f2602083612462565b91506138fd826138bc565b602082019050919050565b60006020820190508181036000830152613921816138e5565b9050919050565b7f45524332303a206275726e2066726f6d20746865207a65726f2061646472657360008201527f7300000000000000000000000000000000000000000000000000000000000000602082015250565b6000613984602183612462565b915061398f82613928565b604082019050919050565b600060208201905081810360008301526139b381613977565b9050919050565b7f45524332303a206275726e20616d6f756e7420657863656564732062616c616e60008201527f6365000000000000000000000000000000000000000000000000000000000000602082015250565b6000613a16602283612462565b9150613a21826139ba565b604082019050919050565b60006020820190508181036000830152613a4581613a09565b9050919050565b7f45524332303a206d696e7420746f20746865207a65726f206164647265737300600082015250565b6000613a82601f83612462565b9150613a8d82613a4c565b602082019050919050565b60006020820190508181036000830152613ab181613a75565b905091905056fea2646970667358221220f88446c793e58db682158c86ca2d47316ad47e3303de3d0d23f79df6b553f74b64736f6c63430008110033",
  "immutableReferences": {},
  "source": "// SPDX-License-Identifier: MIT\npragma solidity ^0.8.9;\n\nimport \"@openzeppelin/contracts/token/ERC20/ERC20.sol\";\nimport \"@openzeppelin/contracts/token/ERC20/extensions/ERC20Burnable.sol\";\nimport \"@openzeppelin/contracts/access/Ownable.sol\";\n\ncontract MigrationToken is ERC20, ERC20Burnable, Ownable {\n    uint256 ID = 1;\n    mapping (address => uint256) GovernmentList;\n    mapping (address => bool) User;\n    mapping (address => mapping (address => uint256)) ExpireTime;\n    mapping (address => mapping (address => uint256)) RentList;\n    mapping (address => mapping (uint256 => Event)) EventList;\n    mapping (address => mapping (string => uint256)) Goods;\n    struct Gov {\n        address Address;\n        string name;\n        uint256 id;\n        uint256 eventNumber;\n    }\n    struct Event {\n        string name;\n        uint _reward;\n    }\n\n    Gov[] localgoverment;\n\n    constructor() ERC20(\"MigrationToken\", \"MGT\") {}\n\n    modifier govOnly() {\n        require(GovernmentList[msg.sender] != 0, \"you are not government\");\n        _;\n    }\n\n    function mint(address to, uint256 amount) internal onlyOwner {\n        _mint(to, amount);\n    }\n    //\n    function register(address government,string memory _name) public onlyOwner() {\n        require(GovernmentList[government] == 0, \"already registeresd\");\n        GovernmentList[government] = ID;\n        Gov memory LocalGoverment = Gov(government, _name, ID, 0);\n        localgoverment.push(LocalGoverment);\n        ID ++;\n        mint(government, 1000);\n    }\n    //\n    function request(address to, uint256 amount) public payable govOnly() {\n        require(amount%100 == 0, \"Incorrect unit\");\n        uint256 tmp = amount / 100;\n        uint256 time = block.timestamp;\n        require(msg.value >= tmp*(1 ether),\"not sufficient value\");\n        RentList[msg.sender][to] = amount;\n        ExpireTime[msg.sender][to] = time;\n    }\n    //\n    function retrieve(address to) public govOnly() {\n        require(ExpireTime[msg.sender][to] >= 7 days, \"time is ileagal\");\n        uint256 Balance = RentList[msg.sender][to];\n        payable(msg.sender).transfer(Balance/100*10**18);\n        RentList[msg.sender][to] = 0;\n        ExpireTime[msg.sender][to] = 0;\n    }\n    //\n    function accept(address from) public govOnly() {\n        uint256 amount = RentList[from][msg.sender];\n        uint256 Eth = amount/100*10**18;\n        require(amount != 0,\"request is not found\");\n        require(balanceOf(msg.sender) >= amount, \"STRANGE\");\n        transfer(from, amount);\n        RentList[from][msg.sender] = 0;\n        ExpireTime[from][msg.sender] = 0;\n        payable(msg.sender).transfer(Eth);\n    }\n\n    //\n    function EventRegister(string memory _name, uint256 _amount) public govOnly() {\n        Event memory newEvent = Event(_name, _amount);\n        Gov storage tmp = localgoverment[GovernmentList[msg.sender]-1];\n        uint256 id = tmp.eventNumber;\n        EventList[msg.sender][id] = newEvent;\n        tmp.eventNumber ++;\n    }\n\n    //\n    function reward(address participant, uint256 _reward) internal {\n        transfer(participant, _reward);\n    }\n\n    function provide_token(uint256 _eventnum, address[] memory participants) public govOnly() {\n        Event memory newEvent = EventList[msg.sender][_eventnum];\n        require(newEvent._reward >= 0, \"event is not defined\");\n        for(uint i=0; i<participants.length; i++){\n            reward(participants[i], newEvent._reward);\n        }\n    }\n\n    //\n    function goodsope(bool flag, string memory goodsname, uint256 rate) public govOnly {\n        if (flag == true) {\n            Goods[msg.sender][goodsname] = rate;\n        }\n        else {\n            Goods[msg.sender][goodsname] = 0;\n        }\n    }\n\n    //\n    function exchange(address gov, string memory goods) public {\n        uint256 amount = Goods[gov][goods];\n        require(amount > 0, \"goods is not defind\");\n        transfer(gov, amount);\n    }\n\n    function check() view public returns(uint256) {\n        return address(this).balance;\n    }\n\n    function checkAccount(address acc) view public returns(bool,address) {\n      if (GovernmentList[acc] == 0) {\n        return (true,acc);\n      }else {\n        return (false, acc);\n      }\n    }\n}",
  "sourcePath": "/Users/shunya-t/Desktop/Mig/contracts/MigratonToken.sol",
  "compiler": {
    "name": "solc",
    "version": "0.8.17+commit.8df45f5f.Emscripten.clang"
  },
  "schemaVersion": "3.4.14",
  "updatedAt": "2023-08-16T12:28:47.143Z",
  "networkType": "ethereum",
  "devdoc": {
    "kind": "dev",
    "methods": {
      "allowance(address,address)": {
        "details": "See {IERC20-allowance}."
      },
      "approve(address,uint256)": {
        "details": "See {IERC20-approve}. NOTE: If `amount` is the maximum `uint256`, the allowance is not updated on `transferFrom`. This is semantically equivalent to an infinite approval. Requirements: - `spender` cannot be the zero address."
      },
      "balanceOf(address)": {
        "details": "See {IERC20-balanceOf}."
      },
      "burn(uint256)": {
        "details": "Destroys `amount` tokens from the caller. See {ERC20-_burn}."
      },
      "burnFrom(address,uint256)": {
        "details": "Destroys `amount` tokens from `account`, deducting from the caller's allowance. See {ERC20-_burn} and {ERC20-allowance}. Requirements: - the caller must have allowance for ``accounts``'s tokens of at least `amount`."
      },
      "decimals()": {
        "details": "Returns the number of decimals used to get its user representation. For example, if `decimals` equals `2`, a balance of `505` tokens should be displayed to a user as `5.05` (`505 / 10 ** 2`). Tokens usually opt for a value of 18, imitating the relationship between Ether and Wei. This is the default value returned by this function, unless it's overridden. NOTE: This information is only used for _display_ purposes: it in no way affects any of the arithmetic of the contract, including {IERC20-balanceOf} and {IERC20-transfer}."
      },
      "decreaseAllowance(address,uint256)": {
        "details": "Atomically decreases the allowance granted to `spender` by the caller. This is an alternative to {approve} that can be used as a mitigation for problems described in {IERC20-approve}. Emits an {Approval} event indicating the updated allowance. Requirements: - `spender` cannot be the zero address. - `spender` must have allowance for the caller of at least `subtractedValue`."
      },
      "increaseAllowance(address,uint256)": {
        "details": "Atomically increases the allowance granted to `spender` by the caller. This is an alternative to {approve} that can be used as a mitigation for problems described in {IERC20-approve}. Emits an {Approval} event indicating the updated allowance. Requirements: - `spender` cannot be the zero address."
      },
      "name()": {
        "details": "Returns the name of the token."
      },
      "owner()": {
        "details": "Returns the address of the current owner."
      },
      "renounceOwnership()": {
        "details": "Leaves the contract without owner. It will not be possible to call `onlyOwner` functions. Can only be called by the current owner. NOTE: Renouncing ownership will leave the contract without an owner, thereby disabling any functionality that is only available to the owner."
      },
      "symbol()": {
        "details": "Returns the symbol of the token, usually a shorter version of the name."
      },
      "totalSupply()": {
        "details": "See {IERC20-totalSupply}."
      },
      "transfer(address,uint256)": {
        "details": "See {IERC20-transfer}. Requirements: - `to` cannot be the zero address. - the caller must have a balance of at least `amount`."
      },
      "transferFrom(address,address,uint256)": {
        "details": "See {IERC20-transferFrom}. Emits an {Approval} event indicating the updated allowance. This is not required by the EIP. See the note at the beginning of {ERC20}. NOTE: Does not update the allowance if the current allowance is the maximum `uint256`. Requirements: - `from` and `to` cannot be the zero address. - `from` must have a balance of at least `amount`. - the caller must have allowance for ``from``'s tokens of at least `amount`."
      },
      "transferOwnership(address)": {
        "details": "Transfers ownership of the contract to a new account (`newOwner`). Can only be called by the current owner."
      }
    },
    "version": 1
  },
  "userdoc": {
    "kind": "user",
    "methods": {},
    "version": 1
  }
}