{
  "_format": "hh-sol-artifact-1",
  "contractName": "SightseeingToken",
  "sourceName": "contracts/SightseeingToken.sol",
  "abi": [
    {
      "inputs": [],
      "stateMutability": "nonpayable",
      "type": "constructor"
    },
    {
      "anonymous": false,
      "inputs": [
        {
          "indexed": true,
          "internalType": "address",
          "name": "owner",
          "type": "address"
        },
        {
          "indexed": true,
          "internalType": "address",
          "name": "spender",
          "type": "address"
        },
        {
          "indexed": false,
          "internalType": "uint256",
          "name": "value",
          "type": "uint256"
        }
      ],
      "name": "Approval",
      "type": "event"
    },
    {
      "anonymous": false,
      "inputs": [
        {
          "indexed": true,
          "internalType": "address",
          "name": "previousOwner",
          "type": "address"
        },
        {
          "indexed": true,
          "internalType": "address",
          "name": "newOwner",
          "type": "address"
        }
      ],
      "name": "OwnershipTransferred",
      "type": "event"
    },
    {
      "anonymous": false,
      "inputs": [
        {
          "indexed": true,
          "internalType": "address",
          "name": "from",
          "type": "address"
        },
        {
          "indexed": true,
          "internalType": "address",
          "name": "to",
          "type": "address"
        },
        {
          "indexed": false,
          "internalType": "uint256",
          "name": "value",
          "type": "uint256"
        }
      ],
      "name": "Transfer",
      "type": "event"
    },
    {
      "anonymous": false,
      "inputs": [
        {
          "indexed": true,
          "internalType": "address",
          "name": "from",
          "type": "address"
        },
        {
          "indexed": true,
          "internalType": "address",
          "name": "to",
          "type": "address"
        },
        {
          "indexed": false,
          "internalType": "uint256",
          "name": "goodsid",
          "type": "uint256"
        },
        {
          "indexed": false,
          "internalType": "uint256",
          "name": "amount",
          "type": "uint256"
        }
      ],
      "name": "TransferEvent",
      "type": "event"
    },
    {
      "anonymous": false,
      "inputs": [
        {
          "indexed": true,
          "internalType": "string",
          "name": "name",
          "type": "string"
        }
      ],
      "name": "regigov",
      "type": "event"
    },
    {
      "inputs": [
        {
          "internalType": "uint256",
          "name": "_amount",
          "type": "uint256"
        }
      ],
      "name": "Buy_token",
      "outputs": [],
      "stateMutability": "payable",
      "type": "function"
    },
    {
      "inputs": [
        {
          "internalType": "uint256",
          "name": "_reward",
          "type": "uint256"
        }
      ],
      "name": "Register_Event",
      "outputs": [],
      "stateMutability": "nonpayable",
      "type": "function"
    },
    {
      "inputs": [
        {
          "internalType": "address",
          "name": "owner",
          "type": "address"
        },
        {
          "internalType": "address",
          "name": "spender",
          "type": "address"
        }
      ],
      "name": "allowance",
      "outputs": [
        {
          "internalType": "uint256",
          "name": "",
          "type": "uint256"
        }
      ],
      "stateMutability": "view",
      "type": "function"
    },
    {
      "inputs": [
        {
          "internalType": "address",
          "name": "spender",
          "type": "address"
        },
        {
          "internalType": "uint256",
          "name": "amount",
          "type": "uint256"
        }
      ],
      "name": "approve",
      "outputs": [
        {
          "internalType": "bool",
          "name": "",
          "type": "bool"
        }
      ],
      "stateMutability": "nonpayable",
      "type": "function"
    },
    {
      "inputs": [
        {
          "internalType": "address",
          "name": "account",
          "type": "address"
        }
      ],
      "name": "balanceOf",
      "outputs": [
        {
          "internalType": "uint256",
          "name": "",
          "type": "uint256"
        }
      ],
      "stateMutability": "view",
      "type": "function"
    },
    {
      "inputs": [],
      "name": "decimals",
      "outputs": [
        {
          "internalType": "uint8",
          "name": "",
          "type": "uint8"
        }
      ],
      "stateMutability": "view",
      "type": "function"
    },
    {
      "inputs": [
        {
          "internalType": "address",
          "name": "spender",
          "type": "address"
        },
        {
          "internalType": "uint256",
          "name": "subtractedValue",
          "type": "uint256"
        }
      ],
      "name": "decreaseAllowance",
      "outputs": [
        {
          "internalType": "bool",
          "name": "",
          "type": "bool"
        }
      ],
      "stateMutability": "nonpayable",
      "type": "function"
    },
    {
      "inputs": [
        {
          "internalType": "address",
          "name": "_gov",
          "type": "address"
        },
        {
          "internalType": "uint256",
          "name": "_goodsid",
          "type": "uint256"
        },
        {
          "internalType": "uint256",
          "name": "_amount",
          "type": "uint256"
        }
      ],
      "name": "exchange",
      "outputs": [
        {
          "internalType": "bool",
          "name": "",
          "type": "bool"
        }
      ],
      "stateMutability": "nonpayable",
      "type": "function"
    },
    {
      "inputs": [
        {
          "internalType": "address",
          "name": "spender",
          "type": "address"
        },
        {
          "internalType": "uint256",
          "name": "addedValue",
          "type": "uint256"
        }
      ],
      "name": "increaseAllowance",
      "outputs": [
        {
          "internalType": "bool",
          "name": "",
          "type": "bool"
        }
      ],
      "stateMutability": "nonpayable",
      "type": "function"
    },
    {
      "inputs": [],
      "name": "name",
      "outputs": [
        {
          "internalType": "string",
          "name": "",
          "type": "string"
        }
      ],
      "stateMutability": "view",
      "type": "function"
    },
    {
      "inputs": [],
      "name": "owner",
      "outputs": [
        {
          "internalType": "address",
          "name": "",
          "type": "address"
        }
      ],
      "stateMutability": "view",
      "type": "function"
    },
    {
      "inputs": [
        {
          "internalType": "uint256",
          "name": "_eventnum",
          "type": "uint256"
        },
        {
          "internalType": "address[]",
          "name": "_participants",
          "type": "address[]"
        }
      ],
      "name": "provide_reward",
      "outputs": [],
      "stateMutability": "nonpayable",
      "type": "function"
    },
    {
      "inputs": [
        {
          "internalType": "uint256",
          "name": "_price",
          "type": "uint256"
        }
      ],
      "name": "register_Goods",
      "outputs": [],
      "stateMutability": "nonpayable",
      "type": "function"
    },
    {
      "inputs": [
        {
          "internalType": "address",
          "name": "_government",
          "type": "address"
        },
        {
          "internalType": "string",
          "name": "_name",
          "type": "string"
        }
      ],
      "name": "register_government",
      "outputs": [],
      "stateMutability": "nonpayable",
      "type": "function"
    },
    {
      "inputs": [],
      "name": "renounceOwnership",
      "outputs": [],
      "stateMutability": "nonpayable",
      "type": "function"
    },
    {
      "inputs": [],
      "name": "symbol",
      "outputs": [
        {
          "internalType": "string",
          "name": "",
          "type": "string"
        }
      ],
      "stateMutability": "view",
      "type": "function"
    },
    {
      "inputs": [],
      "name": "totalSupply",
      "outputs": [
        {
          "internalType": "uint256",
          "name": "",
          "type": "uint256"
        }
      ],
      "stateMutability": "view",
      "type": "function"
    },
    {
      "inputs": [
        {
          "internalType": "address",
          "name": "to",
          "type": "address"
        },
        {
          "internalType": "uint256",
          "name": "amount",
          "type": "uint256"
        }
      ],
      "name": "transfer",
      "outputs": [
        {
          "internalType": "bool",
          "name": "",
          "type": "bool"
        }
      ],
      "stateMutability": "nonpayable",
      "type": "function"
    },
    {
      "inputs": [
        {
          "internalType": "address",
          "name": "from",
          "type": "address"
        },
        {
          "internalType": "address",
          "name": "to",
          "type": "address"
        },
        {
          "internalType": "uint256",
          "name": "amount",
          "type": "uint256"
        }
      ],
      "name": "transferFrom",
      "outputs": [
        {
          "internalType": "bool",
          "name": "",
          "type": "bool"
        }
      ],
      "stateMutability": "nonpayable",
      "type": "function"
    },
    {
      "inputs": [
        {
          "internalType": "address",
          "name": "newOwner",
          "type": "address"
        }
      ],
      "name": "transferOwnership",
      "outputs": [],
      "stateMutability": "nonpayable",
      "type": "function"
    }
  ],
  "bytecode": "0x608060405260016006553480156200001657600080fd5b506040518060400160405280601081526020017f5369676874736565696e67546f6b656e000000000000000000000000000000008152506040518060400160405280600381526020017f5353540000000000000000000000000000000000000000000000000000000000815250816003908162000094919062000417565b508060049081620000a6919062000417565b505050620000c9620000bd620000cf60201b60201c565b620000d760201b60201c565b620004fe565b600033905090565b6000600560009054906101000a900473ffffffffffffffffffffffffffffffffffffffff16905081600560006101000a81548173ffffffffffffffffffffffffffffffffffffffff021916908373ffffffffffffffffffffffffffffffffffffffff1602179055508173ffffffffffffffffffffffffffffffffffffffff168173ffffffffffffffffffffffffffffffffffffffff167f8be0079c531659141344cd1fd0a4f28419497f9722a3daafe3b4186f6b6457e060405160405180910390a35050565b600081519050919050565b7f4e487b7100000000000000000000000000000000000000000000000000000000600052604160045260246000fd5b7f4e487b7100000000000000000000000000000000000000000000000000000000600052602260045260246000fd5b600060028204905060018216806200021f57607f821691505b602082108103620002355762000234620001d7565b5b50919050565b60008190508160005260206000209050919050565b60006020601f8301049050919050565b600082821b905092915050565b6000600883026200029f7fffffffffffffffffffffffffffffffffffffffffffffffffffffffffffffffff8262000260565b620002ab868362000260565b95508019841693508086168417925050509392505050565b6000819050919050565b6000819050919050565b6000620002f8620002f2620002ec84620002c3565b620002cd565b620002c3565b9050919050565b6000819050919050565b6200031483620002d7565b6200032c6200032382620002ff565b8484546200026d565b825550505050565b600090565b6200034362000334565b6200035081848462000309565b505050565b5b8181101562000378576200036c60008262000339565b60018101905062000356565b5050565b601f821115620003c75762000391816200023b565b6200039c8462000250565b81016020851015620003ac578190505b620003c4620003bb8562000250565b83018262000355565b50505b505050565b600082821c905092915050565b6000620003ec60001984600802620003cc565b1980831691505092915050565b6000620004078383620003d9565b9150826002028217905092915050565b62000422826200019d565b67ffffffffffffffff8111156200043e576200043d620001a8565b5b6200044a825462000206565b620004578282856200037c565b600060209050601f8311600181146200048f57600084156200047a578287015190505b620004868582620003f9565b865550620004f6565b601f1984166200049f866200023b565b60005b82811015620004c957848901518255600182019150602085019450602081019050620004a2565b86831015620004e95784890151620004e5601f891682620003d9565b8355505b6001600288020188555050505b505050505050565b612e69806200050e6000396000f3fe60806040526004361061011f5760003560e01c8063715018a6116100a0578063a9059cbb11610064578063a9059cbb146103fb578063cc1fe47514610438578063dd62ed3e14610454578063f15d6eef14610491578063f2fde38b146104ba5761011f565b8063715018a6146103285780638da5cb5b1461033f57806395d89b411461036a578063a29d280814610395578063a457c2d7146103be5761011f565b806323b872dd116100e757806323b872dd1461021d5780632f7b59ed1461025a578063313ce5671461028357806339509351146102ae57806370a08231146102eb5761011f565b806304192de61461012457806306fdde031461014d578063095ea7b31461017857806318160ddd146101b5578063236e06f6146101e0575b600080fd5b34801561013057600080fd5b5061014b60048036038101906101469190611cc4565b6104e3565b005b34801561015957600080fd5b50610162610646565b60405161016f9190611d9f565b60405180910390f35b34801561018457600080fd5b5061019f600480360381019061019a9190611dc1565b6106d8565b6040516101ac9190611e1c565b60405180910390f35b3480156101c157600080fd5b506101ca6106fb565b6040516101d79190611e46565b60405180910390f35b3480156101ec57600080fd5b5061020760048036038101906102029190611e61565b610705565b6040516102149190611e1c565b60405180910390f35b34801561022957600080fd5b50610244600480360381019061023f9190611eb4565b610887565b6040516102519190611e1c565b60405180910390f35b34801561026657600080fd5b50610281600480360381019061027c9190611f07565b6108b6565b005b34801561028f57600080fd5b50610298610a8e565b6040516102a59190611f50565b60405180910390f35b3480156102ba57600080fd5b506102d560048036038101906102d09190611dc1565b610a97565b6040516102e29190611e1c565b60405180910390f35b3480156102f757600080fd5b50610312600480360381019061030d9190611f6b565b610ace565b60405161031f9190611e46565b60405180910390f35b34801561033457600080fd5b5061033d610b16565b005b34801561034b57600080fd5b50610354610b2a565b6040516103619190611fa7565b60405180910390f35b34801561037657600080fd5b5061037f610b54565b60405161038c9190611d9f565b60405180910390f35b3480156103a157600080fd5b506103bc60048036038101906103b7919061201d565b610be6565b005b3480156103ca57600080fd5b506103e560048036038101906103e09190611dc1565b610e50565b6040516103f29190611e1c565b60405180910390f35b34801561040757600080fd5b50610422600480360381019061041d9190611dc1565b610ec7565b60405161042f9190611e1c565b60405180910390f35b610452600480360381019061044d9190611f07565b610eea565b005b34801561046057600080fd5b5061047b6004803603810190610476919061207d565b61105b565b6040516104889190611e46565b60405180910390f35b34801561049d57600080fd5b506104b860048036038101906104b39190611f07565b6110e2565b005b3480156104c657600080fd5b506104e160048036038101906104dc9190611f6b565b6112ba565b005b6000600760003373ffffffffffffffffffffffffffffffffffffffff1673ffffffffffffffffffffffffffffffffffffffff1681526020019081526020016000205403610565576040517f08c379a000000000000000000000000000000000000000000000000000000000815260040161055c90612109565b60405180910390fd5b6000600860003373ffffffffffffffffffffffffffffffffffffffff1673ffffffffffffffffffffffffffffffffffffffff1681526020019081526020016000206000848152602001908152602001600020549050600081116105fd576040517f08c379a00000000000000000000000000000000000000000000000000000000081526004016105f490612175565b60405180910390fd5b60005b82518110156106405761062d83828151811061061f5761061e612195565b5b60200260200101518361133d565b8080610638906121f3565b915050610600565b50505050565b6060600380546106559061226a565b80601f01602080910402602001604051908101604052809291908181526020018280546106819061226a565b80156106ce5780601f106106a3576101008083540402835291602001916106ce565b820191906000526020600020905b8154815290600101906020018083116106b157829003601f168201915b5050505050905090565b6000806106e361134c565b90506106f0818585611354565b600191505092915050565b6000600254905090565b600080600960008673ffffffffffffffffffffffffffffffffffffffff1673ffffffffffffffffffffffffffffffffffffffff16815260200190815260200160002060008581526020019081526020016000205490506000811161079e576040517f08c379a0000000000000000000000000000000000000000000000000000000008152600401610795906122e7565b60405180910390fd5b82816107aa9190612307565b6107b333610ace565b10156107f4576040517f08c379a00000000000000000000000000000000000000000000000000000000081526004016107eb90612395565b60405180910390fd5b600061080b8685846108069190612307565b610ec7565b9050801561087b578573ffffffffffffffffffffffffffffffffffffffff163373ffffffffffffffffffffffffffffffffffffffff167fbabc8cd3bd6701ee99131f374fd2ab4ea66f48dc4e4182ed78fecb0502e44dd687876040516108729291906123b5565b60405180910390a35b80925050509392505050565b60008061089261134c565b905061089f85828561151d565b6108aa8585856115a9565b60019150509392505050565b6000600760003373ffffffffffffffffffffffffffffffffffffffff1673ffffffffffffffffffffffffffffffffffffffff1681526020019081526020016000205403610938576040517f08c379a000000000000000000000000000000000000000000000000000000000815260040161092f90612109565b60405180910390fd5b6000600a6001600760003373ffffffffffffffffffffffffffffffffffffffff1673ffffffffffffffffffffffffffffffffffffffff1681526020019081526020016000205461098891906123de565b8154811061099957610998612195565b5b906000526020600020906005020160030154905081600860003373ffffffffffffffffffffffffffffffffffffffff1673ffffffffffffffffffffffffffffffffffffffff1681526020019081526020016000206000838152602001908152602001600020819055506001600a6001600760003373ffffffffffffffffffffffffffffffffffffffff1673ffffffffffffffffffffffffffffffffffffffff16815260200190815260200160002054610a5291906123de565b81548110610a6357610a62612195565b5b90600052602060002090600502016003016000828254610a839190612412565b925050819055505050565b60006012905090565b600080610aa261134c565b9050610ac3818585610ab4858961105b565b610abe9190612412565b611354565b600191505092915050565b60008060008373ffffffffffffffffffffffffffffffffffffffff1673ffffffffffffffffffffffffffffffffffffffff168152602001908152602001600020549050919050565b610b1e61181f565b610b28600061189d565b565b6000600560009054906101000a900473ffffffffffffffffffffffffffffffffffffffff16905090565b606060048054610b639061226a565b80601f0160208091040260200160405190810160405280929190818152602001828054610b8f9061226a565b8015610bdc5780601f10610bb157610100808354040283529160200191610bdc565b820191906000526020600020905b815481529060010190602001808311610bbf57829003601f168201915b5050505050905090565b610bee61181f565b6000600760008573ffffffffffffffffffffffffffffffffffffffff1673ffffffffffffffffffffffffffffffffffffffff1681526020019081526020016000205414610c70576040517f08c379a0000000000000000000000000000000000000000000000000000000008152600401610c6790612492565b60405180910390fd5b600654600760008573ffffffffffffffffffffffffffffffffffffffff1673ffffffffffffffffffffffffffffffffffffffff16815260200190815260200160002081905550600a6040518060a001604052808573ffffffffffffffffffffffffffffffffffffffff16815260200184848080601f016020809104026020016040519081016040528093929190818152602001838380828437600081840152601f19601f8201169050808301925050505050505081526020016006548152602001600081526020016000815250908060018154018082558091505060019003906000526020600020906005020160009091909190915060008201518160000160006101000a81548173ffffffffffffffffffffffffffffffffffffffff021916908373ffffffffffffffffffffffffffffffffffffffff1602179055506020820151816001019081610dc2919061265e565b50604082015181600201556060820151816003015560808201518160040155505060066000815480929190610df6906121f3565b9190505550610e07836103e8611963565b8181604051610e1792919061276f565b60405180910390207f04a73d7bd4619bccf2b4f8f484c0f649ad742d1e99d2beb006aae89342f1096660405160405180910390a2505050565b600080610e5b61134c565b90506000610e69828661105b565b905083811015610eae576040517f08c379a0000000000000000000000000000000000000000000000000000000008152600401610ea5906127fa565b60405180910390fd5b610ebb8286868403611354565b60019250505092915050565b600080610ed261134c565b9050610edf8185856115a9565b600191505092915050565b6000600760003373ffffffffffffffffffffffffffffffffffffffff1673ffffffffffffffffffffffffffffffffffffffff1681526020019081526020016000205403610f6c576040517f08c379a0000000000000000000000000000000000000000000000000000000008152600401610f6390612109565b60405180910390fd5b6103e881610f7a9190612849565b662386f26fc10000610f8c9190612307565b341015610fce576040517f08c379a0000000000000000000000000000000000000000000000000000000008152600401610fc5906128c6565b60405180910390fd5b6000662386f26fc1000034610fe391906128e6565b14611023576040517f08c379a000000000000000000000000000000000000000000000000000000000815260040161101a90612963565b60405180910390fd5b6000662386f26fc10000346110389190612849565b905060006103e88261104a9190612307565b90506110563382611963565b505050565b6000600160008473ffffffffffffffffffffffffffffffffffffffff1673ffffffffffffffffffffffffffffffffffffffff16815260200190815260200160002060008373ffffffffffffffffffffffffffffffffffffffff1673ffffffffffffffffffffffffffffffffffffffff16815260200190815260200160002054905092915050565b6000600760003373ffffffffffffffffffffffffffffffffffffffff1673ffffffffffffffffffffffffffffffffffffffff1681526020019081526020016000205403611164576040517f08c379a000000000000000000000000000000000000000000000000000000000815260040161115b90612109565b60405180910390fd5b6000600a6001600760003373ffffffffffffffffffffffffffffffffffffffff1673ffffffffffffffffffffffffffffffffffffffff168152602001908152602001600020546111b491906123de565b815481106111c5576111c4612195565b5b906000526020600020906005020160040154905081600960003373ffffffffffffffffffffffffffffffffffffffff1673ffffffffffffffffffffffffffffffffffffffff1681526020019081526020016000206000838152602001908152602001600020819055506001600a6001600760003373ffffffffffffffffffffffffffffffffffffffff1673ffffffffffffffffffffffffffffffffffffffff1681526020019081526020016000205461127e91906123de565b8154811061128f5761128e612195565b5b906000526020600020906005020160040160008282546112af9190612412565b925050819055505050565b6112c261181f565b600073ffffffffffffffffffffffffffffffffffffffff168173ffffffffffffffffffffffffffffffffffffffff1603611331576040517f08c379a0000000000000000000000000000000000000000000000000000000008152600401611328906129f5565b60405180910390fd5b61133a8161189d565b50565b6113478282610ec7565b505050565b600033905090565b600073ffffffffffffffffffffffffffffffffffffffff168373ffffffffffffffffffffffffffffffffffffffff16036113c3576040517f08c379a00000000000000000000000000000000000000000000000000000000081526004016113ba90612a87565b60405180910390fd5b600073ffffffffffffffffffffffffffffffffffffffff168273ffffffffffffffffffffffffffffffffffffffff1603611432576040517f08c379a000000000000000000000000000000000000000000000000000000000815260040161142990612b19565b60405180910390fd5b80600160008573ffffffffffffffffffffffffffffffffffffffff1673ffffffffffffffffffffffffffffffffffffffff16815260200190815260200160002060008473ffffffffffffffffffffffffffffffffffffffff1673ffffffffffffffffffffffffffffffffffffffff168152602001908152602001600020819055508173ffffffffffffffffffffffffffffffffffffffff168373ffffffffffffffffffffffffffffffffffffffff167f8c5be1e5ebec7d5bd14f71427d1e84f3dd0314c0f7b2291e5b200ac8c7c3b925836040516115109190611e46565b60405180910390a3505050565b6000611529848461105b565b90507fffffffffffffffffffffffffffffffffffffffffffffffffffffffffffffffff81146115a35781811015611595576040517f08c379a000000000000000000000000000000000000000000000000000000000815260040161158c90612b85565b60405180910390fd5b6115a28484848403611354565b5b50505050565b600073ffffffffffffffffffffffffffffffffffffffff168373ffffffffffffffffffffffffffffffffffffffff1603611618576040517f08c379a000000000000000000000000000000000000000000000000000000000815260040161160f90612c17565b60405180910390fd5b600073ffffffffffffffffffffffffffffffffffffffff168273ffffffffffffffffffffffffffffffffffffffff1603611687576040517f08c379a000000000000000000000000000000000000000000000000000000000815260040161167e90612ca9565b60405180910390fd5b611692838383611ab9565b60008060008573ffffffffffffffffffffffffffffffffffffffff1673ffffffffffffffffffffffffffffffffffffffff16815260200190815260200160002054905081811015611718576040517f08c379a000000000000000000000000000000000000000000000000000000000815260040161170f90612d3b565b60405180910390fd5b8181036000808673ffffffffffffffffffffffffffffffffffffffff1673ffffffffffffffffffffffffffffffffffffffff16815260200190815260200160002081905550816000808573ffffffffffffffffffffffffffffffffffffffff1673ffffffffffffffffffffffffffffffffffffffff168152602001908152602001600020600082825401925050819055508273ffffffffffffffffffffffffffffffffffffffff168473ffffffffffffffffffffffffffffffffffffffff167fddf252ad1be2c89b69c2b068fc378daa952ba7f163c4a11628f55a4df523b3ef846040516118069190611e46565b60405180910390a3611819848484611abe565b50505050565b61182761134c565b73ffffffffffffffffffffffffffffffffffffffff16611845610b2a565b73ffffffffffffffffffffffffffffffffffffffff161461189b576040517f08c379a000000000000000000000000000000000000000000000000000000000815260040161189290612da7565b60405180910390fd5b565b6000600560009054906101000a900473ffffffffffffffffffffffffffffffffffffffff16905081600560006101000a81548173ffffffffffffffffffffffffffffffffffffffff021916908373ffffffffffffffffffffffffffffffffffffffff1602179055508173ffffffffffffffffffffffffffffffffffffffff168173ffffffffffffffffffffffffffffffffffffffff167f8be0079c531659141344cd1fd0a4f28419497f9722a3daafe3b4186f6b6457e060405160405180910390a35050565b600073ffffffffffffffffffffffffffffffffffffffff168273ffffffffffffffffffffffffffffffffffffffff16036119d2576040517f08c379a00000000000000000000000000000000000000000000000000000000081526004016119c990612e13565b60405180910390fd5b6119de60008383611ab9565b80600260008282546119f09190612412565b92505081905550806000808473ffffffffffffffffffffffffffffffffffffffff1673ffffffffffffffffffffffffffffffffffffffff168152602001908152602001600020600082825401925050819055508173ffffffffffffffffffffffffffffffffffffffff16600073ffffffffffffffffffffffffffffffffffffffff167fddf252ad1be2c89b69c2b068fc378daa952ba7f163c4a11628f55a4df523b3ef83604051611aa19190611e46565b60405180910390a3611ab560008383611abe565b5050565b505050565b505050565b6000604051905090565b600080fd5b600080fd5b6000819050919050565b611aea81611ad7565b8114611af557600080fd5b50565b600081359050611b0781611ae1565b92915050565b600080fd5b6000601f19601f8301169050919050565b7f4e487b7100000000000000000000000000000000000000000000000000000000600052604160045260246000fd5b611b5b82611b12565b810181811067ffffffffffffffff82111715611b7a57611b79611b23565b5b80604052505050565b6000611b8d611ac3565b9050611b998282611b52565b919050565b600067ffffffffffffffff821115611bb957611bb8611b23565b5b602082029050602081019050919050565b600080fd5b600073ffffffffffffffffffffffffffffffffffffffff82169050919050565b6000611bfa82611bcf565b9050919050565b611c0a81611bef565b8114611c1557600080fd5b50565b600081359050611c2781611c01565b92915050565b6000611c40611c3b84611b9e565b611b83565b90508083825260208201905060208402830185811115611c6357611c62611bca565b5b835b81811015611c8c5780611c788882611c18565b845260208401935050602081019050611c65565b5050509392505050565b600082601f830112611cab57611caa611b0d565b5b8135611cbb848260208601611c2d565b91505092915050565b60008060408385031215611cdb57611cda611acd565b5b6000611ce985828601611af8565b925050602083013567ffffffffffffffff811115611d0a57611d09611ad2565b5b611d1685828601611c96565b9150509250929050565b600081519050919050565b600082825260208201905092915050565b60005b83811015611d5a578082015181840152602081019050611d3f565b60008484015250505050565b6000611d7182611d20565b611d7b8185611d2b565b9350611d8b818560208601611d3c565b611d9481611b12565b840191505092915050565b60006020820190508181036000830152611db98184611d66565b905092915050565b60008060408385031215611dd857611dd7611acd565b5b6000611de685828601611c18565b9250506020611df785828601611af8565b9150509250929050565b60008115159050919050565b611e1681611e01565b82525050565b6000602082019050611e316000830184611e0d565b92915050565b611e4081611ad7565b82525050565b6000602082019050611e5b6000830184611e37565b92915050565b600080600060608486031215611e7a57611e79611acd565b5b6000611e8886828701611c18565b9350506020611e9986828701611af8565b9250506040611eaa86828701611af8565b9150509250925092565b600080600060608486031215611ecd57611ecc611acd565b5b6000611edb86828701611c18565b9350506020611eec86828701611c18565b9250506040611efd86828701611af8565b9150509250925092565b600060208284031215611f1d57611f1c611acd565b5b6000611f2b84828501611af8565b91505092915050565b600060ff82169050919050565b611f4a81611f34565b82525050565b6000602082019050611f656000830184611f41565b92915050565b600060208284031215611f8157611f80611acd565b5b6000611f8f84828501611c18565b91505092915050565b611fa181611bef565b82525050565b6000602082019050611fbc6000830184611f98565b92915050565b600080fd5b60008083601f840112611fdd57611fdc611b0d565b5b8235905067ffffffffffffffff811115611ffa57611ff9611fc2565b5b60208301915083600182028301111561201657612015611bca565b5b9250929050565b60008060006040848603121561203657612035611acd565b5b600061204486828701611c18565b935050602084013567ffffffffffffffff81111561206557612064611ad2565b5b61207186828701611fc7565b92509250509250925092565b6000806040838503121561209457612093611acd565b5b60006120a285828601611c18565b92505060206120b385828601611c18565b9150509250929050565b7f796f7520617265206e6f7420676f7665726e6d656e7400000000000000000000600082015250565b60006120f3601683611d2b565b91506120fe826120bd565b602082019050919050565b60006020820190508181036000830152612122816120e6565b9050919050565b7f6576656e74206973206e6f7420646566696e6564000000000000000000000000600082015250565b600061215f601483611d2b565b915061216a82612129565b602082019050919050565b6000602082019050818103600083015261218e81612152565b9050919050565b7f4e487b7100000000000000000000000000000000000000000000000000000000600052603260045260246000fd5b7f4e487b7100000000000000000000000000000000000000000000000000000000600052601160045260246000fd5b60006121fe82611ad7565b91507fffffffffffffffffffffffffffffffffffffffffffffffffffffffffffffffff82036122305761222f6121c4565b5b600182019050919050565b7f4e487b7100000000000000000000000000000000000000000000000000000000600052602260045260246000fd5b6000600282049050600182168061228257607f821691505b6020821081036122955761229461223b565b5b50919050565b7f676f6f6473206973206e6f7420646566696e6400000000000000000000000000600082015250565b60006122d1601383611d2b565b91506122dc8261229b565b602082019050919050565b60006020820190508181036000830152612300816122c4565b9050919050565b600061231282611ad7565b915061231d83611ad7565b925082820261232b81611ad7565b91508282048414831517612342576123416121c4565b5b5092915050565b7f696e73756666696369656e7420616d6f756e74206f6620746f6b656e00000000600082015250565b600061237f601c83611d2b565b915061238a82612349565b602082019050919050565b600060208201905081810360008301526123ae81612372565b9050919050565b60006040820190506123ca6000830185611e37565b6123d76020830184611e37565b9392505050565b60006123e982611ad7565b91506123f483611ad7565b925082820390508181111561240c5761240b6121c4565b5b92915050565b600061241d82611ad7565b915061242883611ad7565b92508282019050808211156124405761243f6121c4565b5b92915050565b7f616c726561647920726567697374657265736400000000000000000000000000600082015250565b600061247c601383611d2b565b915061248782612446565b602082019050919050565b600060208201905081810360008301526124ab8161246f565b9050919050565b60008190508160005260206000209050919050565b60006020601f8301049050919050565b600082821b905092915050565b6000600883026125147fffffffffffffffffffffffffffffffffffffffffffffffffffffffffffffffff826124d7565b61251e86836124d7565b95508019841693508086168417925050509392505050565b6000819050919050565b600061255b61255661255184611ad7565b612536565b611ad7565b9050919050565b6000819050919050565b61257583612540565b61258961258182612562565b8484546124e4565b825550505050565b600090565b61259e612591565b6125a981848461256c565b505050565b5b818110156125cd576125c2600082612596565b6001810190506125af565b5050565b601f821115612612576125e3816124b2565b6125ec846124c7565b810160208510156125fb578190505b61260f612607856124c7565b8301826125ae565b50505b505050565b600082821c905092915050565b600061263560001984600802612617565b1980831691505092915050565b600061264e8383612624565b9150826002028217905092915050565b61266782611d20565b67ffffffffffffffff8111156126805761267f611b23565b5b61268a825461226a565b6126958282856125d1565b600060209050601f8311600181146126c857600084156126b6578287015190505b6126c08582612642565b865550612728565b601f1984166126d6866124b2565b60005b828110156126fe578489015182556001820191506020850194506020810190506126d9565b8683101561271b5784890151612717601f891682612624565b8355505b6001600288020188555050505b505050505050565b600081905092915050565b82818337600083830152505050565b60006127568385612730565b935061276383858461273b565b82840190509392505050565b600061277c82848661274a565b91508190509392505050565b7f45524332303a2064656372656173656420616c6c6f77616e63652062656c6f7760008201527f207a65726f000000000000000000000000000000000000000000000000000000602082015250565b60006127e4602583611d2b565b91506127ef82612788565b604082019050919050565b60006020820190508181036000830152612813816127d7565b9050919050565b7f4e487b7100000000000000000000000000000000000000000000000000000000600052601260045260246000fd5b600061285482611ad7565b915061285f83611ad7565b92508261286f5761286e61281a565b5b828204905092915050565b7f3100000000000000000000000000000000000000000000000000000000000000600082015250565b60006128b0600183611d2b565b91506128bb8261287a565b602082019050919050565b600060208201905081810360008301526128df816128a3565b9050919050565b60006128f182611ad7565b91506128fc83611ad7565b92508261290c5761290b61281a565b5b828206905092915050565b7f3200000000000000000000000000000000000000000000000000000000000000600082015250565b600061294d600183611d2b565b915061295882612917565b602082019050919050565b6000602082019050818103600083015261297c81612940565b9050919050565b7f4f776e61626c653a206e6577206f776e657220697320746865207a65726f206160008201527f6464726573730000000000000000000000000000000000000000000000000000602082015250565b60006129df602683611d2b565b91506129ea82612983565b604082019050919050565b60006020820190508181036000830152612a0e816129d2565b9050919050565b7f45524332303a20617070726f76652066726f6d20746865207a65726f2061646460008201527f7265737300000000000000000000000000000000000000000000000000000000602082015250565b6000612a71602483611d2b565b9150612a7c82612a15565b604082019050919050565b60006020820190508181036000830152612aa081612a64565b9050919050565b7f45524332303a20617070726f766520746f20746865207a65726f20616464726560008201527f7373000000000000000000000000000000000000000000000000000000000000602082015250565b6000612b03602283611d2b565b9150612b0e82612aa7565b604082019050919050565b60006020820190508181036000830152612b3281612af6565b9050919050565b7f45524332303a20696e73756666696369656e7420616c6c6f77616e6365000000600082015250565b6000612b6f601d83611d2b565b9150612b7a82612b39565b602082019050919050565b60006020820190508181036000830152612b9e81612b62565b9050919050565b7f45524332303a207472616e736665722066726f6d20746865207a65726f20616460008201527f6472657373000000000000000000000000000000000000000000000000000000602082015250565b6000612c01602583611d2b565b9150612c0c82612ba5565b604082019050919050565b60006020820190508181036000830152612c3081612bf4565b9050919050565b7f45524332303a207472616e7366657220746f20746865207a65726f206164647260008201527f6573730000000000000000000000000000000000000000000000000000000000602082015250565b6000612c93602383611d2b565b9150612c9e82612c37565b604082019050919050565b60006020820190508181036000830152612cc281612c86565b9050919050565b7f45524332303a207472616e7366657220616d6f756e742065786365656473206260008201527f616c616e63650000000000000000000000000000000000000000000000000000602082015250565b6000612d25602683611d2b565b9150612d3082612cc9565b604082019050919050565b60006020820190508181036000830152612d5481612d18565b9050919050565b7f4f776e61626c653a2063616c6c6572206973206e6f7420746865206f776e6572600082015250565b6000612d91602083611d2b565b9150612d9c82612d5b565b602082019050919050565b60006020820190508181036000830152612dc081612d84565b9050919050565b7f45524332303a206d696e7420746f20746865207a65726f206164647265737300600082015250565b6000612dfd601f83611d2b565b9150612e0882612dc7565b602082019050919050565b60006020820190508181036000830152612e2c81612df0565b905091905056fea2646970667358221220b9852b26a058f2a4c42b28dd8369a23269988f58a84ac8732f1a2f24db71319764736f6c63430008130033",
  "linkReferences": {},
  "deployedLinkReferences": {}
}